:03000000020026D5
:0C002600787FE4F6D8FD75810D02006DB6
:03000300010900F0
:1000E300759850E4F587758920D2AFD2AC758BFD36
:1000F300758DFDD28E850A90E50BB43004C2A380C2
:05010300F4D2A380F01E
:030023000200B226
:1000B200C0E0C0D075D000C000309817C298C2AC62
:1000C200740A2509F8A6990509E509B40203750918
:1000D20000D2AC309904C299C299D000D0D0D0E0FD
:0100E20032EB
:100032000200E3E493A3F8E493A34003F68001F201
:1000420008DFF48029E493A3F85407240CC8C333CF
:10005200C4540F4420C8834004F456800146F6DF9E
:10006200E4800B0102040810204080900003E47E2B
:10007200019360BCA3FF543F30E509541FFEE49393
:10008200A360010ECF54C025E060A840B8E493A35A
:10009200FAE493A3F8E493A3C8C582C8CAC583CA85
:1000A200F0A3C8C582C8CAC583CADFE9DEE780BE3D
:0100060000F9
:00000001FF
